:1000000060C0A1C0BAC09FC09EC09DC09CC09BC024
:100010009AC099C080C897C0A2C895C094C05F5DBF
:10002000605D05010906A101050719E029E7150032
:100030002501950875018102950175088103050761
:10004000190029FF150026FF009506750881000597
:10005000081901290595057501910295017503910E
:1000600003C018034D006100630072006F002000A0
:100070005000610064002000320000000C034100C9
:100080004E00410056004900000004030904090223
:100090002200010100A0FA0904000001030101008F
:1000A0000921010100012240000705810308000128
:1000B0001201100100000008EBCE02000100010255
:1000C000000111241FBECFE5D2E0DEBFCDBF04B6D4
:1000D00003FE24C080916F0190917001A091710185
:1000E000B09172018730904BA740B04BB9F4109299
:1000F0006F0110927001109271011092720114BE82
:1001000084B7877F84BF0FB6F894A89581B58861BE
:1001100081BD11BC0FBEEDE5FCE0099521E0ACE628
:10012000B0E001C01D92AF36B207E1F710E0A0E6E3
:10013000B0E0E6E2F2E102C005900D92AC36B10704
:10014000D9F7D1D66EC85CCFA82FB92F80E090E048
:1001500041E050EA609530E009C02D9182279795E3
:10016000879510F084279527305EC8F36F5FA8F35A
:100170000895EADF8D939D930895CF93CFB7CF93E2
:10018000C395B39BE9F7B39B0BC0B39B09C0B39B6B
:1001900007C0B39B05C0B39B03C0B39B01C0D8C0CD
:1001A0000F92DF93C0914901DD27C35BDE4F012E23
:1001B000B39B03C0DF910F90E6CF2F930F931F9354
:1001C0004F932FEF4F6F06B303FB20F95F933F93DD
:1001D00050E03BE065C016B30126502953FDC89599
:1001E00056B3012703FB25F92F7306B3B1F050274F
:1001F000102713FB26F906B22230F0F000C016B328
:10020000012703FB27F90126502906B22430E8F51F
:100210004F77206816B30000F6CF50274F7D20623D
:1002200006B2102F000000C006B300265029102788
:1002300013FB26F906B2E2CF4F7B06B3206400C061
:10024000DACF01265029187106B269F14E7F21607C
:10025000012F16B328C0002650294D7F06B2226018
:10026000102F29C0012650294B7F06B22460012F90
:100270002DC016B301265029477F2860000006B222
:100280002EC04F7E06B3206130C0422706B349938B
:1002900000265029102706B24FEF13FB20F9297FC3
:1002A00016B379F2187159F10126502906B20127C7
:1002B00003FB21F9237F06B371F200265029315048
:1002C000D0F006B2102713FB22F9277E16B351F2A5
:1002D00001265029012703FB06B223F92F7C49F29E
:1002E000000006B3102713FB24F90026502906B29C
:1002F0002F7939F270CF10E21ABF00271CC03B5093
:100300003195C31BD04010E21ABF0881033C21F194
:100310000B3411F1209147011981110F1213EDCF08
:100320004A81441F093679F10D3211F0013E29F757
:100330004F7009F0042F00934C013F915F914F9152
:100340001F910F912F91DF910F90CAB7C5FD18CF64
:10035000CF91CFBFCF91189520914C01222369F303
:1003600010914A01112309F046C034300AF445C007
:1003700030934A0120934801109149013BE0311B21
:10038000309349013AC000914A010130A4F50AE5D1
:100390004F7049F430916B0034FD30C000936B0016
:1003A000C4E2D1E02FC0433059F0443091F0309195
:1003B0002F0134FD23C000932F01C0E3D1E022C000
:1003C0003091630134FD1AC000936301C4E6D1E0AB
:1003D00019C030913B0134FD11C000933B01CCE3C7
:1003E000D1E010C0052710E000C021C0052710E0B3
:1003F000C89508BB14C03AE501C032ED032EC0E039
:10040000D0E032E017B31861C39A08B317BB58E1C4
:1004100020E84FEF20FF052708BB279517951C3FC5
:1004200028F700004552B0F720FF0527279508BBA5
:1004300017951C3FB8F629913A9561F7077E109100
:100440004B01110F08BBC250D04011F0109347016F
:1004500010E21ABF086017B3177E402F477E54E0A2
:100460005A95F1F708BB17BB48BB67CFFC019381D6
:10047000933039F130F49130A1F09230D1F080E036
:1004800008959132E9F19232D1F784819581892BD7
:10049000B1F782E290E0909323018093220180E4FF
:1004A000089580EB90E0909323018093220182E1F4
:1004B00008958EE890E0909323018093220182E2D8
:1004C000089582818130A1F0882351F08230B9F6FD
:1004D00082E690E0909323018093220188E10895C1
:1004E0008AE890E0909323018093220184E00895AC
:1004F0008CE790E090932301809322018CE0089593
:1005000082818111BCCF80EA90E090932301809397
:10051000220189E0089508950895089580911D01AC
:10052000089580E008952FB7F89480918700909106
:100530008800A0918900B0918A002FBF0895809112
:100540007E0090918C00892B90917F00892B809365
:100550006E00E0918400F0918500309731F00280C8
:10056000F381E02D8EE690E009940895882309F444
:1005700058C09CEF980F913A70F4E0E7F0E026E75E
:1005800030E09191891303C0DF0111971C922E175F
:100590003F07B9F7D4CF90E2980F983088F487706E
:1005A00021E030E0A90102C0440F551F8A95E2F70F
:1005B000CA01809590917E00892380937E00EACFC6
:1005C0009BE5980F9330B0F480917A0090917B0076
:1005D000892B39F110927B0010927A00E09184000F
:1005E000F09185003097E9F00680F781E02D90E0EA
:1005F00080E00994885A8731A0F480917C00909122
:100600007D00892B71F010927D0010927C00E091AA
:100610008400F0918500309721F00084F185E02D71
:10062000E6CF08950F931F93CF93C82F882309F423
:1006300048C08CEF8C0F813A98F500E710E0F80184
:100640008191C817F9F080E0E637F807C9F7EFEFB6
:1006500080E0D8019D918D01C91781F0EF3F19F419
:10066000911101C0E82F8F5F863099F7EF3F31F08D
:100670000E2E000CFF0BE259FF4FC283CF911F914A
:100680000F915DCFE0E7F0E08191C81303C0DF0177
:1006900011971C92A0E0E637FA07B1F750DFD7CFE9
:1006A00080E28C0F883068F4C77021E030E001C030
:1006B000220FCA95EAF780917E00822B80937E00FC
:1006C000DDCFCF911F910F910895E0918400F091BB
:1006D0008500309721F00190F081E02D099480E0B1
:1006E0000895982F92959F7011F0892F94E0282FEC
:1006F0002695269511F09E5F822F869509F09F5FC3
:10070000892F0895CF93DF9380914A01835087FD0D
:1007100067C090914901CCE0D0E0C91BD109C35B0F
:10072000DE4F90914801903108F458C09D3209F095
:10073000F2C0883009F052C083EC809324018AE52E
:1007400080936B00109221018881807609F496C015
:10075000803229F58981813099F48C819D81892BA2
:10076000F1F484E191E0909323018093220188E0E9
:100770009F81911131C09E81981770F5892F2CC0EF
:10078000823041F483E191E0909323018093220130
:1007900081E0EECF8A3029F48B818093130180E0D1
:1007A000E7CF8930E1F78A819B818115924069F416
:1007B0008C819D81892B49F481E0809320018E8179
:1007C0009F8190931F0180931E01888187FFA1C0A4
:1007D0008E8190E89093210180936A0010924A01E3
:1007E00080916B0084FF3DC080916A008F3FC9F10A
:1007F000C82F893008F0C8E0982F9C1B90936A009E
:100800009091240128E89227909324018823E9F00D
:1008100080912201909123012091210126FF97C010
:10082000FC012C2FA5E2B1E034913D93319621508B
:10083000D9F79C012F5F3F4F8FEF8C0F820F932FC3
:10084000911D90932301809322016C2F85E291E00A
:1008500090DCCC5FCC3019F08FEF80936A00C093AE
:100860006B0084E196B3987131F48150D9F71092FE
:100870004B0110924701DF91CF9108952A81109288
:100880002D01998191110AC010922E012DE231E0C3
:1008900082E030932301209322016ACF953029F41E
:1008A00020934B012DE231E0F4CF9630C1F49B81CF
:1008B000913049F4CE01DADD90E4909321018F3F2D
:1008C00009F483CF55CF9230A9F3933099F3913245
:1008D00089F3923279F390E49093210149CF9830D3
:1008E00089F0993019F420931C01DCCF9A3071F013
:1008F0009B30C1F69BE490933001909364019093F8
:100900003C01D0CF2CE131E081E0C3CF2DE231E0DA
:10091000FBCF8FEF5ECF8091210187FF5FCF80916A
:100920001E0190911F01892B71F08091200181306F
:1009300051F4888180931D0110921F0110921E01B5
:1009400010926A004BCF8EE180936B0047CFDC01A1
:100950002C2FE5E2F1E03D9131932150E1F769CF91
:10096000CF93DF93CAE0D0E080912F0184FF3AC09B
:100970008091110190911201981769F190E023E0A4
:10098000880F991F2A95E1F78F569F4F20912F01CD
:1009900024FF24C02091300138E823272093300120
:1009A0009C01285F3F4FE1E3F1E0DC014D91CD0177
:1009B0004193A217B307C9F768E081E391E0D9DB5F
:1009C0008CE080932F018091110190E001968F704F
:1009D000992780931101DF91CF9108952AE5209303
:1009E0002F01DECF8FDE8CE190E10197F1F700C09F
:1009F0000000219709F0B8CFEECFCF93DF93EC0141
:100A0000A0911201B0E0CD0101968F70992720913D
:100A10001101281779F093E0AA0FBB1F9A95E1F70F
:100A2000AF56BF4F98E0FE0101900D929A95E1F705
:100A30008093120167DE94DF88E0FE01A4E1B1E05B
:100A400001900D928A95E1F7DF91CF910895CF93B0
:100A500086B390E095958795959587958095909527
:100A600081709927B0993AC022E0822B909183003F
:100A7000981306C0C0917800CC2331F1C0E00BC0C0
:100A80008093830081E0809378004DDD9093770020
:100A900080937600C1E020917600309177004FB7C7
:100AA000F8948091870090918800A0918900B0917E
:100AB0008A004FBF821B930B069730F08091830012
:100AC00080938B0010927800809179008F5F8A303C
:100AD00038F4809379008C2FCF91089520E0C5CF12
:100AE0001092790080917E00982F9C709C3099F72D
:100AF00081FF05C08EE296DD8EE238DDECCF8DE21F
:100B000091DD8DE2FACF6AEE7EEF90E080E075D362
:100B100060E082E090E057D360E083E090E053D360
:100B20001092800060E084E090E04DD360E082E2CB
:100B300090E049D360E085E090E045D360E086E056
:100B400090E041D36FEF87E090E03DD340E050E08C
:100B5000BA0188E090E049D360E08DE090E033D3C3
:100B600040E050E0BA0188E190E03FD360E087E1E7
:100B700090E029D340E050E0BA018CE190E035D319
:100B800070E060E080E290E038D340E050E0BA01ED
:100B900088E190E02AD340E050E0BA018FE090E095
:100BA00024D340E050E0BA0183E190E01EC3EF920D
:100BB000FF920F931F93CF93DF9300D000D00F923B
:100BC000CDB7DEB78C01FC0183819481892B39F08C
:100BD000F080E1808F2D8E218F3F09F033C10F907F
:100BE0000F900F900F900F90DF91CF911F910F9169
:100BF000FF90EF900895222389F083EE13DD82EEBB
:100C000011DD8EE20F900F900F900F900F90DF91FB
:100C1000CF911F910F91FF90EF9004CD8EE2A6DC53
:100C200082EEA4DC83EE0F900F900F900F900F9048
:100C3000DF91CF911F910F91FF90EF9097CC2223DE
:100C400031F083EEEFDC82EEEDDC8DE2DBCF8DE286
:100C5000E6CF4F3D5C4509F017C10F900F900F9004
:100C60000F900F90DF91CF911F910F91FF90EF9018
:100C70004ACF2533310509F49CC02933310509F0E9
:100C80001BC1209181002370A9F080EE90E012C07A
:100C9000233E310509F470C008F04AC0203E3105FA
:100CA00009F45BC0223E310509F006C120918100A4
:100CB00022FD5BC09032F8F4E92FEF70FE2E292F51
:100CC000207F19F0F29440EFF422E82EF8012281FF
:100CD000222309F49FC0FF2061F080E28E0D88304E
:100CE00010F0E11091C080917E00F82AF0927E0011
:100CF00026DC8E2D97DC85E0F801DE01119601904F
:100D00000D928A95E1F780918000EBDCEA81E80F93
:100D1000FF27FF1FCF01880F991FE981E80FF92FE7
:100D2000F11DEE0FFF1FE25EFF4F8591949157CFAB
:100D3000263E310561F1273E310581F1243E310522
:100D400009F0BAC02091820021FFB4CF80918100C8
:100D500084FD0FC087EE90E0ADCF2091810020FD93
:100D60004AC03091820030FFA5CF83EE90E024FF8F
:100D7000A1CF90E080E09ECF2091810022FD3EC077
:100D80003091820030FD81CF24FF94CFF2CF2091AB
:100D9000810023FF8FCF24FDECCFDCCF2091810099
:100DA00023FD2FC03091820031FFEECF84EE90E022
:100DB00081CF2091810025FF7DCF89E290E07ACF1D
:100DC0002091810025FF76CF85E390E073CF2091BD
:100DD000810026FF6FCF8AE290E06CCF20918100E6
:100DE00026FF68CF81E390E065CF3A9521153F411A
:100DF00008F460CFBECF89E390E05CCF82EE90E054
:100E000059CF86EE90E056CF80918C00F82AF09270
:100E10008C006ECFABDBFF2009F46DCFF09480E245
:100E20008E0D883010F0E11007C080917E00F8220E
:100E3000F0927E0084DB5FCF80918C00F822F092EC
:100E40008C00F8CF809180004CDC282F2E0D3327AA
:100E5000331FF901EE0FFF1FEF0DF11DEE0FFF1F06
:100E6000CF01825E9F4FFC0145915491F801228190
:100E70004F35FDE55F0709F4BECE40363DE553072B
:100E800009F4DDCE2111E5CEFC0125913491C90193
:100E90002238310509F4F5CE08F0FACE21333105B8
:100EA00009F495CF08F0E5CE2932310509F488CF51
:100EB0002A32310509F492CF283E310508F095CF4A
:100EC000203E310508F0F6CE2130310509F4F2CE8E
:100ED0002115310509F44DCF24503109213A31054E
:100EE00008F4E8CE46CF00D000D00F92CDB7DEB7E1
:100EF00080E890E00FB6F89486BD96BD0FBE81E9FC
:100F000092E090936D0080936C00AC9A8BB78062F6
:100F10008BBF8BE4809330018093640180933C010C
:100F20008AE580932F018093630180933B01BB9AF4
:100F300080E0815009F08DC0BB98789482E08ABD32
:100F400084E083BF80E489BD80E189BFBA98C29AFA
:100F5000B898C09A1092830010928B0090E080E0C5
:100F60002DD18A3E9E4F09F0CEDD82E090E01ED169
:100F700080938E0084E090E019D1182F82E290E0F7
:100F800015D1982F812F909382008093810083E068
:100F900090E00CD18093800010928C0010927F0022
:100FA000CEDA80E690E0909385008093840027E875
:100FB00034E882E0215030408040E1F700C000007A
:100FC000DD24DA9428E1E22EF12C30E4C32E08E18E
:100FD00080919000882309F444C0109286000FB6D7
:100FE000F894A895E09241000FBEC092410085B7E9
:100FF000877E806185BF85B7806285BF789488953C
:1010000085B78F7D85BF0FB6F894A89581B58861A7
:1010100081BD11BC0FBE1BDD80918B008823C1F206
:10102000F89497B3C39A892F886187BB88B38027C8
:1010300088BBF3E422E431E0F15020403040E1F796
:1010400000C0000088B3802788BB97BBC398789402
:10105000BFCFA895ECE1F0E13197F1F700C00000B7
:1010600068CF50DB80911C01882309F452C0809125
:101070002F0184FF4EC0EBDC882359F08FB7F89422
:1010800040918700509188006091890070918A009A
:101090008FBF80918B0020918F00922F982728136B
:1010A0000BC041DAD982DA821B8281609D838C83F6
:1010B000CE0101967CDD25C0E92FE170BE2E912C7A
:1010C00090FD06C091FFEDCF9924939492E0B92E44
:1010D0001B2D1823AA24A394111101C0A12C23DADB
:1010E0008160111110928C0099821A82AB829D83CB
:1010F0008C83CE0101965BDD80918F008B258093E0
:101100008F00E3DA90918D00891719F0DEDA809371
:101110008D0026DC5DCF78941F921FB61F9211249C
:101120008F939F93AF93BF93809187009091880096
:10113000A0918900B0918A000196A11DB11D8093F4
:10114000870090938800A0938900B0938A00BF9194
:10115000AF919F918F911F901FBE1F9018951F9266
:101160001FB61F9211248F939F93AF93BF938091CB
:101170008600811113C08091870090918800A09112
:101180008900B0918A004196A11DB11D809387000E
:1011900090938800A0938900B0938A00BF91AF918B
:1011A0009F918F911F901FBE1F901895E199FECFC0
:1011B0009FBB8EBBE09A99278DB30895A8E1B0E05C
:1011C00042E050E020C0262FE199FECF9FBB8EBBAE
:1011D000E09A01970DB2021639F01CBA2DBB0FB67A
:1011E000F894E29AE19A0FBE08950396272FECDF58
:1011F000EADF252FE9DF242FE7CF0196272FE4DF51
:10120000E2CFDC01CB01FC01E199FECF06C0FFBBC0
:10121000EEBBE09A31960DB20D9241505040B8F7B6
:061220000895F894FFCFD1
:0C1226008E02FD048D028B028C02FF5A28
:00000001FF
